{
    "_format": "hh-sol-artifact-1",
    "contractName": "Domains",
    "sourceName": "contracts/Domains.sol",
    "abi": [
        {
            "inputs": [
                {
                    "internalType": "string",
                    "name": "_tld",
                    "type": "string"
                }
            ],
            "stateMutability": "payable",
            "type": "constructor"
        },
        {
            "inputs": [],
            "name": "AlreadyRegistered",
            "type": "error"
        },
        {
            "inputs": [
                {
                    "internalType": "string",
                    "name": "name",
                    "type": "string"
                }
            ],
            "name": "InvalidName",
            "type": "error"
        },
        {
            "inputs": [],
            "name": "Unauthorized",
            "type": "error"
        },
        {
            "anonymous": false,
            "inputs": [
                {
                    "indexed": true,
                    "internalType": "address",
                    "name": "owner",
                    "type": "address"
                },
                {
                    "indexed": true,
                    "internalType": "address",
                    "name": "approved",
                    "type": "address"
                },
                {
                    "indexed": true,
                    "internalType": "uint256",
                    "name": "tokenId",
                    "type": "uint256"
                }
            ],
            "name": "Approval",
            "type": "event"
        },
        {
            "anonymous": false,
            "inputs": [
                {
                    "indexed": true,
                    "internalType": "address",
                    "name": "owner",
                    "type": "address"
                },
                {
                    "indexed": true,
                    "internalType": "address",
                    "name": "operator",
                    "type": "address"
                },
                {
                    "indexed": false,
                    "internalType": "bool",
                    "name": "approved",
                    "type": "bool"
                }
            ],
            "name": "ApprovalForAll",
            "type": "event"
        },
        {
            "anonymous": false,
            "inputs": [
                {
                    "indexed": true,
                    "internalType": "address",
                    "name": "from",
                    "type": "address"
                },
                {
                    "indexed": true,
                    "internalType": "address",
                    "name": "to",
                    "type": "address"
                },
                {
                    "indexed": true,
                    "internalType": "uint256",
                    "name": "tokenId",
                    "type": "uint256"
                }
            ],
            "name": "Transfer",
            "type": "event"
        },
        {
            "inputs": [
                {
                    "internalType": "address",
                    "name": "to",
                    "type": "address"
                },
                {
                    "internalType": "uint256",
                    "name": "tokenId",
                    "type": "uint256"
                }
            ],
            "name": "approve",
            "outputs": [],
            "stateMutability": "nonpayable",
            "type": "function"
        },
        {
            "inputs": [
                {
                    "internalType": "address",
                    "name": "owner",
                    "type": "address"
                }
            ],
            "name": "balanceOf",
            "outputs": [
                {
                    "internalType": "uint256",
                    "name": "",
                    "type": "uint256"
                }
            ],
            "stateMutability": "view",
            "type": "function"
        },
        {
            "inputs": [
                {
                    "internalType": "string",
                    "name": "",
                    "type": "string"
                }
            ],
            "name": "domains",
            "outputs": [
                {
                    "internalType": "address",
                    "name": "",
                    "type": "address"
                }
            ],
            "stateMutability": "view",
            "type": "function"
        },
        {
            "inputs": [
                {
                    "internalType": "string",
                    "name": "name",
                    "type": "string"
                }
            ],
            "name": "getAddress",
            "outputs": [
                {
                    "internalType": "address",
                    "name": "",
                    "type": "address"
                }
            ],
            "stateMutability": "view",
            "type": "function"
        },
        {
            "inputs": [],
            "name": "getAllNames",
            "outputs": [
                {
                    "internalType": "string[]",
                    "name": "",
                    "type": "string[]"
                }
            ],
            "stateMutability": "view",
            "type": "function"
        },
        {
            "inputs": [
                {
                    "internalType": "uint256",
                    "name": "tokenId",
                    "type": "uint256"
                }
            ],
            "name": "getApproved",
            "outputs": [
                {
                    "internalType": "address",
                    "name": "",
                    "type": "address"
                }
            ],
            "stateMutability": "view",
            "type": "function"
        },
        {
            "inputs": [
                {
                    "internalType": "string",
                    "name": "name",
                    "type": "string"
                }
            ],
            "name": "getRecord",
            "outputs": [
                {
                    "internalType": "string",
                    "name": "",
                    "type": "string"
                }
            ],
            "stateMutability": "view",
            "type": "function"
        },
        {
            "inputs": [
                {
                    "internalType": "address",
                    "name": "owner",
                    "type": "address"
                },
                {
                    "internalType": "address",
                    "name": "operator",
                    "type": "address"
                }
            ],
            "name": "isApprovedForAll",
            "outputs": [
                {
                    "internalType": "bool",
                    "name": "",
                    "type": "bool"
                }
            ],
            "stateMutability": "view",
            "type": "function"
        },
        {
            "inputs": [],
            "name": "isOwner",
            "outputs": [
                {
                    "internalType": "bool",
                    "name": "",
                    "type": "bool"
                }
            ],
            "stateMutability": "view",
            "type": "function"
        },
        {
            "inputs": [],
            "name": "name",
            "outputs": [
                {
                    "internalType": "string",
                    "name": "",
                    "type": "string"
                }
            ],
            "stateMutability": "view",
            "type": "function"
        },
        {
            "inputs": [
                {
                    "internalType": "uint256",
                    "name": "",
                    "type": "uint256"
                }
            ],
            "name": "names",
            "outputs": [
                {
                    "internalType": "string",
                    "name": "",
                    "type": "string"
                }
            ],
            "stateMutability": "view",
            "type": "function"
        },
        {
            "inputs": [],
            "name": "owner",
            "outputs": [
                {
                    "internalType": "address payable",
                    "name": "",
                    "type": "address"
                }
            ],
            "stateMutability": "view",
            "type": "function"
        },
        {
            "inputs": [
                {
                    "internalType": "uint256",
                    "name": "tokenId",
                    "type": "uint256"
                }
            ],
            "name": "ownerOf",
            "outputs": [
                {
                    "internalType": "address",
                    "name": "",
                    "type": "address"
                }
            ],
            "stateMutability": "view",
            "type": "function"
        },
        {
            "inputs": [
                {
                    "internalType": "string",
                    "name": "name",
                    "type": "string"
                }
            ],
            "name": "price",
            "outputs": [
                {
                    "internalType": "uint256",
                    "name": "",
                    "type": "uint256"
                }
            ],
            "stateMutability": "view",
            "type": "function"
        },
        {
            "inputs": [
                {
                    "internalType": "string",
                    "name": "",
                    "type": "string"
                }
            ],
            "name": "records",
            "outputs": [
                {
                    "internalType": "string",
                    "name": "",
                    "type": "string"
                }
            ],
            "stateMutability": "view",
            "type": "function"
        },
        {
            "inputs": [
                {
                    "internalType": "string",
                    "name": "name",
                    "type": "string"
                }
            ],
            "name": "register",
            "outputs": [],
            "stateMutability": "payable",
            "type": "function"
        },
        {
            "inputs": [
                {
                    "internalType": "address",
                    "name": "from",
                    "type": "address"
                },
                {
                    "internalType": "address",
                    "name": "to",
                    "type": "address"
                },
                {
                    "internalType": "uint256",
                    "name": "tokenId",
                    "type": "uint256"
                }
            ],
            "name": "safeTransferFrom",
            "outputs": [],
            "stateMutability": "nonpayable",
            "type": "function"
        },
        {
            "inputs": [
                {
                    "internalType": "address",
                    "name": "from",
                    "type": "address"
                },
                {
                    "internalType": "address",
                    "name": "to",
                    "type": "address"
                },
                {
                    "internalType": "uint256",
                    "name": "tokenId",
                    "type": "uint256"
                },
                {
                    "internalType": "bytes",
                    "name": "data",
                    "type": "bytes"
                }
            ],
            "name": "safeTransferFrom",
            "outputs": [],
            "stateMutability": "nonpayable",
            "type": "function"
        },
        {
            "inputs": [
                {
                    "internalType": "address",
                    "name": "operator",
                    "type": "address"
                },
                {
                    "internalType": "bool",
                    "name": "approved",
                    "type": "bool"
                }
            ],
            "name": "setApprovalForAll",
            "outputs": [],
            "stateMutability": "nonpayable",
            "type": "function"
        },
        {
            "inputs": [
                {
                    "internalType": "string",
                    "name": "name",
                    "type": "string"
                },
                {
                    "internalType": "string",
                    "name": "record",
                    "type": "string"
                }
            ],
            "name": "setRecord",
            "outputs": [],
            "stateMutability": "nonpayable",
            "type": "function"
        },
        {
            "inputs": [
                {
                    "internalType": "bytes4",
                    "name": "interfaceId",
                    "type": "bytes4"
                }
            ],
            "name": "supportsInterface",
            "outputs": [
                {
                    "internalType": "bool",
                    "name": "",
                    "type": "bool"
                }
            ],
            "stateMutability": "view",
            "type": "function"
        },
        {
            "inputs": [],
            "name": "symbol",
            "outputs": [
                {
                    "internalType": "string",
                    "name": "",
                    "type": "string"
                }
            ],
            "stateMutability": "view",
            "type": "function"
        },
        {
            "inputs": [],
            "name": "tld",
            "outputs": [
                {
                    "internalType": "string",
                    "name": "",
                    "type": "string"
                }
            ],
            "stateMutability": "view",
            "type": "function"
        },
        {
            "inputs": [
                {
                    "internalType": "uint256",
                    "name": "tokenId",
                    "type": "uint256"
                }
            ],
            "name": "tokenURI",
            "outputs": [
                {
                    "internalType": "string",
                    "name": "",
                    "type": "string"
                }
            ],
            "stateMutability": "view",
            "type": "function"
        },
        {
            "inputs": [
                {
                    "internalType": "address",
                    "name": "from",
                    "type": "address"
                },
                {
                    "internalType": "address",
                    "name": "to",
                    "type": "address"
                },
                {
                    "internalType": "uint256",
                    "name": "tokenId",
                    "type": "uint256"
                }
            ],
            "name": "transferFrom",
            "outputs": [],
            "stateMutability": "nonpayable",
            "type": "function"
        },
        {
            "inputs": [
                {
                    "internalType": "string",
                    "name": "",
                    "type": "string"
                }
            ],
            "name": "unique",
            "outputs": [
                {
                    "internalType": "uint256",
                    "name": "",
                    "type": "uint256"
                }
            ],
            "stateMutability": "view",
            "type": "function"
        },
        {
            "inputs": [
                {
                    "internalType": "string",
                    "name": "name",
                    "type": "string"
                }
            ],
            "name": "valid",
            "outputs": [
                {
                    "internalType": "bool",
                    "name": "",
                    "type": "bool"
                }
            ],
            "stateMutability": "pure",
            "type": "function"
        },
        {
            "inputs": [],
            "name": "withdraw",
            "outputs": [],
            "stateMutability": "nonpayable",
            "type": "function"
        }
    ],
    "bytecode": "0x6080604052604051806106e001604052806106b6815260200162005c486106b69139600a9080519060200190620000389291906200049c565b506040518060400160405280600d81526020017f3c2f746578743e3c2f7376673e00000000000000000000000000000000000000815250600b9080519060200190620000869291906200049c565b50604051620062fe380380620062fe8339818101604052810190620000ac9190620006e9565b6040518060400160405280601181526020017f4b696e67204e616d6520536572766963650000000000000000000000000000008152506040518060400160405280600381526020017f4b4e5300000000000000000000000000000000000000000000000000000000008152508160009080519060200190620001309291906200049c565b508060019080519060200190620001499291906200049c565b50505033600760006101000a81548173ffffffffffffffffffffffffffffffffffffffff021916908373ffffffffffffffffffffffffffffffffffffffff1602179055508060099080519060200190620001a59291906200049c565b506002600e604051620001b89062000795565b9081526020016040518091039020819055506002600e604051620001dc90620007fc565b9081526020016040518091039020819055506001600e604051620002009062000863565b9081526020016040518091039020819055506001600e6040516200022490620008ca565b9081526020016040518091039020819055506001600e604051620002489062000931565b9081526020016040518091039020819055506001600e6040516200026c9062000998565b9081526020016040518091039020819055506001600e6040516200029090620009ff565b9081526020016040518091039020819055506001600e604051620002b49062000a66565b9081526020016040518091039020819055506001600e604051620002d89062000acd565b9081526020016040518091039020819055506001600e604051620002fc9062000b34565b9081526020016040518091039020819055506001600e604051620003209062000b9b565b9081526020016040518091039020819055506001600e604051620003449062000c02565b9081526020016040518091039020819055506001600e604051620003689062000c69565b908152602001604051809103902081905550620003c66040518060400160405280601881526020017f2573206e616d652073657276696365206465706c6f796564000000000000000081525082620003cd60201b62001cd91760201c565b5062000d7d565b6200046f8282604051602401620003e692919062000cdd565b6040516020818303038152906040527f4b5c4277000000000000000000000000000000000000000000000000000000007bffffffffffffffffffffffffffffffffffffffffffffffffffffffff19166020820180517bffffffffffffffffffffffffffffffffffffffffffffffffffffffff83818316178352505050506200047360201b60201c565b5050565b60008151905060006a636f6e736f6c652e6c6f679050602083016000808483855afa5050505050565b828054620004aa9062000d47565b90600052602060002090601f016020900481019282620004ce57600085556200051a565b82601f10620004e957805160ff19168380011785556200051a565b828001600101855582156200051a579182015b8281111562000519578251825591602001919060010190620004fc565b5b5090506200052991906200052d565b5090565b5b80821115620005485760008160009055506001016200052e565b5090565b6000604051905090565b600080fd5b600080fd5b600080fd5b600080fd5b6000601f19601f8301169050919050565b7f4e487b7100000000000000000000000000000000000000000000000000000000600052604160045260246000fd5b620005b5826200056a565b810181811067ffffffffffffffff82111715620005d757620005d66200057b565b5b80604052505050565b6000620005ec6200054c565b9050620005fa8282620005aa565b919050565b600067ffffffffffffffff8211156200061d576200061c6200057b565b5b62000628826200056a565b9050602081019050919050565b60005b838110156200065557808201518184015260208101905062000638565b8381111562000665576000848401525b50505050565b6000620006826200067c84620005ff565b620005e0565b905082815260208101848484011115620006a157620006a062000565565b5b620006ae84828562000635565b509392505050565b600082601f830112620006ce57620006cd62000560565b5b8151620006e08482602086016200066b565b91505092915050565b60006020828403121562000702576200070162000556565b5b600082015167ffffffffffffffff8111156200072357620007226200055b565b5b6200073184828501620006b6565b91505092915050565b600081905092915050565b7f7069726174650000000000000000000000000000000000000000000000000000600082015250565b60006200077d6006836200073a565b91506200078a8262000745565b600682019050919050565b6000620007a2826200076e565b9150819050919050565b7f6275726765720000000000000000000000000000000000000000000000000000600082015250565b6000620007e46006836200073a565b9150620007f182620007ac565b600682019050919050565b60006200080982620007d5565b9150819050919050565b7f7a6f726f00000000000000000000000000000000000000000000000000000000600082015250565b60006200084b6004836200073a565b9150620008588262000813565b600482019050919050565b600062000870826200083c565b9150819050919050565b7f6c75666679000000000000000000000000000000000000000000000000000000600082015250565b6000620008b26005836200073a565b9150620008bf826200087a565b600582019050919050565b6000620008d782620008a3565b9150819050919050565b7f6a6f79626f790000000000000000000000000000000000000000000000000000600082015250565b6000620009196006836200073a565b91506200092682620008e1565b600682019050919050565b60006200093e826200090a565b9150819050919050565b7f68616b6900000000000000000000000000000000000000000000000000000000600082015250565b6000620009806004836200073a565b91506200098d8262000948565b600482019050919050565b6000620009a58262000971565b9150819050919050565b7f7573736f70000000000000000000000000000000000000000000000000000000600082015250565b6000620009e76005836200073a565b9150620009f482620009af565b600582019050919050565b600062000a0c82620009d8565b9150819050919050565b7f6e616d6900000000000000000000000000000000000000000000000000000000600082015250565b600062000a4e6004836200073a565b915062000a5b8262000a16565b600482019050919050565b600062000a738262000a3f565b9150819050919050565b7f63686f7070657200000000000000000000000000000000000000000000000000600082015250565b600062000ab56007836200073a565b915062000ac28262000a7d565b600782019050919050565b600062000ada8262000aa6565b9150819050919050565b7f6a696d6265690000000000000000000000000000000000000000000000000000600082015250565b600062000b1c6006836200073a565b915062000b298262000ae4565b600682019050919050565b600062000b418262000b0d565b9150819050919050565b7f62726f6f6b000000000000000000000000000000000000000000000000000000600082015250565b600062000b836005836200073a565b915062000b908262000b4b565b600582019050919050565b600062000ba88262000b74565b9150819050919050565b7f6672616e6b790000000000000000000000000000000000000000000000000000600082015250565b600062000bea6006836200073a565b915062000bf78262000bb2565b600682019050919050565b600062000c0f8262000bdb565b9150819050919050565b7f73616e6a69000000000000000000000000000000000000000000000000000000600082015250565b600062000c516005836200073a565b915062000c5e8262000c19565b600582019050919050565b600062000c768262000c42565b9150819050919050565b600081519050919050565b600082825260208201905092915050565b600062000ca98262000c80565b62000cb5818562000c8b565b935062000cc781856020860162000635565b62000cd2816200056a565b840191505092915050565b6000604082019050818103600083015262000cf9818562000c9c565b9050818103602083015262000d0f818462000c9c565b90509392505050565b7f4e487b7100000000000000000000000000000000000000000000000000000000600052602260045260246000fd5b6000600282049050600182168062000d6057607f821691505b6020821081141562000d775762000d7662000d18565b5b50919050565b614ebb8062000d8d6000396000f3fe6080604052600436106101b75760003560e01c806370a08231116100ec578063bf40fac11161008a578063e985e9c511610064578063e985e9c51461067c578063f2c298be146106b9578063fb825e5f146106d5578063fe2c619814610700576101b7565b8063bf40fac1146105d9578063c1880a9814610616578063c87b56dd1461063f576101b7565b806395d89b41116100c657806395d89b411461051f5780639791c0971461054a578063a22cb46514610587578063b88d4fde146105b0576101b7565b806370a082311461048c5780638da5cb5b146104c95780638f32d59b146104f4576101b7565b80632d5514321161015957806342842e0e1161013357806342842e0e146103ac5780634622ab03146103d5578063541e771d146104125780636352211e1461044f576101b7565b80632d5514321461032d57806332f20401146103585780633ccfd60b14610395576101b7565b8063095ea7b311610195578063095ea7b31461026157806311dd88451461028a57806323b872dd146102c757806326449235146102f0576101b7565b806301ffc9a7146101bc57806306fdde03146101f9578063081812fc14610224575b600080fd5b3480156101c857600080fd5b506101e360048036038101906101de91906134be565b61073d565b6040516101f09190613506565b60405180910390f35b34801561020557600080fd5b5061020e61081f565b60405161021b91906135ba565b60405180910390f35b34801561023057600080fd5b5061024b60048036038101906102469190613612565b6108b1565b6040516102589190613680565b60405180910390f35b34801561026d57600080fd5b50610288600480360381019061028391906136c7565b6108f7565b005b34801561029657600080fd5b506102b160048036038101906102ac919061376c565b610a0f565b6040516102be91906135ba565b60405180910390f35b3480156102d357600080fd5b506102ee60048036038101906102e991906137b9565b610ac2565b005b3480156102fc57600080fd5b506103176004803603810190610312919061393c565b610b22565b6040516103249190613680565b60405180910390f35b34801561033957600080fd5b50610342610b6b565b60405161034f91906135ba565b60405180910390f35b34801561036457600080fd5b5061037f600480360381019061037a919061393c565b610bf9565b60405161038c9190613994565b60405180910390f35b3480156103a157600080fd5b506103aa610c27565b005b3480156103b857600080fd5b506103d360048036038101906103ce91906137b9565b610ced565b005b3480156103e157600080fd5b506103fc60048036038101906103f79190613612565b610d0d565b60405161040991906135ba565b60405180910390f35b34801561041e57600080fd5b506104396004803603810190610434919061393c565b610dad565b60405161044691906135ba565b60405180910390f35b34801561045b57600080fd5b5061047660048036038101906104719190613612565b610e63565b6040516104839190613680565b60405180910390f35b34801561049857600080fd5b506104b360048036038101906104ae91906139af565b610eea565b6040516104c09190613994565b60405180910390f35b3480156104d557600080fd5b506104de610fa2565b6040516104eb91906139fd565b60405180910390f35b34801561050057600080fd5b50610509610fc8565b6040516105169190613506565b60405180910390f35b34801561052b57600080fd5b50610534611020565b60405161054191906135ba565b60405180910390f35b34801561055657600080fd5b50610571600480360381019061056c919061376c565b6110b2565b60405161057e9190613506565b60405180910390f35b34801561059357600080fd5b506105ae60048036038101906105a99190613a44565b611166565b005b3480156105bc57600080fd5b506105d760048036038101906105d29190613b25565b61117c565b005b3480156105e557600080fd5b5061060060048036038101906105fb919061376c565b6111de565b60405161060d9190613680565b60405180910390f35b34801561062257600080fd5b5061063d60048036038101906106389190613ba8565b611229565b005b34801561064b57600080fd5b5061066660048036038101906106619190613612565b611304565b60405161067391906135ba565b60405180910390f35b34801561068857600080fd5b506106a3600480360381019061069e9190613c29565b611417565b6040516106b09190613506565b60405180910390f35b6106d360048036038101906106ce919061376c565b6114ab565b005b3480156106e157600080fd5b506106ea6119e1565b6040516106f79190613d75565b60405180910390f35b34801561070c57600080fd5b506107276004803603810190610722919061376c565b611bbf565b6040516107349190613994565b60405180910390f35b60007f80ac58cd000000000000000000000000000000000000000000000000000000007bffffffffffffffffffffffffffffffffffffffffffffffffffffffff1916827bffffffffffffffffffffffffffffffffffffffffffffffffffffffff1916148061080857507f5b5e139f000000000000000000000000000000000000000000000000000000007bffffffffffffffffffffffffffffffffffffffffffffffffffffffff1916827bffffffffffffffffffffffffffffffffffffffffffffffffffffffff1916145b80610818575061081782611d75565b5b9050919050565b60606000805461082e90613dc6565b80601f016020809104026020016040519081016040528092919081815260200182805461085a90613dc6565b80156108a75780601f1061087c576101008083540402835291602001916108a7565b820191906000526020600020905b81548152906001019060200180831161088a57829003601f168201915b5050505050905090565b60006108bc82611ddf565b6004600083815260200190815260200160002060009054906101000a900473ffffffffffffffffffffffffffffffffffffffff169050919050565b600061090282610e63565b90508073ffffffffffffffffffffffffffffffffffffffff168373ffffffffffffffffffffffffffffffffffffffff161415610973576040517f08c379a000000000000000000000000000000000000000000000000000000000815260040161096a90613e6a565b60405180910390fd5b8073ffffffffffffffffffffffffffffffffffffffff16610992611e2a565b73ffffffffffffffffffffffffffffffffffffffff1614806109c157506109c0816109bb611e2a565b611417565b5b610a00576040517f08c379a00000000000000000000000000000000000000000000000000000000081526004016109f790613efc565b60405180910390fd5b610a0a8383611e32565b505050565b6060600d8383604051610a23929190613f4c565b90815260200160405180910390208054610a3c90613dc6565b80601f0160208091040260200160405190810160405280929190818152602001828054610a6890613dc6565b8015610ab55780601f10610a8a57610100808354040283529160200191610ab5565b820191906000526020600020905b815481529060010190602001808311610a9857829003601f168201915b5050505050905092915050565b610ad3610acd611e2a565b82611eeb565b610b12576040517f08c379a0000000000000000000000000000000000000000000000000000000008152600401610b0990613fd7565b60405180910390fd5b610b1d838383611f80565b505050565b600c818051602081018201805184825260208301602085012081835280955050505050506000915054906101000a900473ffffffffffffffffffffffffffffffffffffffff1681565b60098054610b7890613dc6565b80601f0160208091040260200160405190810160405280929190818152602001828054610ba490613dc6565b8015610bf15780601f10610bc657610100808354040283529160200191610bf1565b820191906000526020600020905b815481529060010190602001808311610bd457829003601f168201915b505050505081565b600e818051602081018201805184825260208301602085012081835280955050505050506000915090505481565b610c2f610fc8565b610c3857600080fd5b600047905060003373ffffffffffffffffffffffffffffffffffffffff1682604051610c6390614028565b60006040518083038185875af1925050503d8060008114610ca0576040519150601f19603f3d011682016040523d82523d6000602084013e610ca5565b606091505b5050905080610ce9576040517f08c379a0000000000000000000000000000000000000000000000000000000008152600401610ce090614089565b60405180910390fd5b5050565b610d088383836040518060200160405280600081525061117c565b505050565b600f6020528060005260406000206000915090508054610d2c90613dc6565b80601f0160208091040260200160405190810160405280929190818152602001828054610d5890613dc6565b8015610da55780601f10610d7a57610100808354040283529160200191610da5565b820191906000526020600020905b815481529060010190602001808311610d8857829003601f168201915b505050505081565b600d818051602081018201805184825260208301602085012081835280955050505050506000915090508054610de290613dc6565b80601f0160208091040260200160405190810160405280929190818152602001828054610e0e90613dc6565b8015610e5b5780601f10610e3057610100808354040283529160200191610e5b565b820191906000526020600020905b815481529060010190602001808311610e3e57829003601f168201915b505050505081565b600080610e6f8361227a565b9050600073ffffffffffffffffffffffffffffffffffffffff168173ffffffffffffffffffffffffffffffffffffffff161415610ee1576040517f08c379a0000000000000000000000000000000000000000000000000000000008152600401610ed8906140f5565b60405180910390fd5b80915050919050565b60008073ffffffffffffffffffffffffffffffffffffffff168273ffffffffffffffffffffffffffffffffffffffff161415610f5b576040517f08c379a0000000000000000000000000000000000000000000000000000000008152600401610f5290614187565b60405180910390fd5b600360008373ffffffffffffffffffffffffffffffffffffffff1673ffffffffffffffffffffffffffffffffffffffff168152602001908152602001600020549050919050565b600760009054906101000a900473ffffffffffffffffffffffffffffffffffffffff1681565b6000600760009054906101000a900473ffffffffffffffffffffffffffffffffffffffff1673ffffffffffffffffffffffffffffffffffffffff163373ffffffffffffffffffffffffffffffffffffffff1614905090565b60606001805461102f90613dc6565b80601f016020809104026020016040519081016040528092919081815260200182805461105b90613dc6565b80156110a85780601f1061107d576101008083540402835291602001916110a8565b820191906000526020600020905b81548152906001019060200180831161108b57829003601f168201915b5050505050905090565b6000600361110384848080601f016020809104026020016040519081016040528093929190818152602001838380828437600081840152601f19601f820116905080830192505050505050506122b7565b1015801561115e5750600a61115b84848080601f016020809104026020016040519081016040528093929190818152602001838380828437600081840152601f19601f820116905080830192505050505050506122b7565b11155b905092915050565b611178611171611e2a565b838361246c565b5050565b61118d611187611e2a565b83611eeb565b6111cc576040517f08c379a00000000000000000000000000000000000000000000000000000000081526004016111c390613fd7565b60405180910390fd5b6111d8848484846125d9565b50505050565b6000600c83836040516111f2929190613f4c565b908152602001604051809103902060009054906101000a900473ffffffffffffffffffffffffffffffffffffffff16905092915050565b600c848460405161123b929190613f4c565b908152602001604051809103902060009054906101000a900473ffffffffffffffffffffffffffffffffffffffff1673ffffffffffffffffffffffffffffffffffffffff163373ffffffffffffffffffffffffffffffffffffffff16146112ce576040517f82b4290000000000000000000000000000000000000000000000000000000000815260040160405180910390fd5b8181600d86866040516112e2929190613f4c565b908152602001604051809103902091906112fd929190613329565b5050505050565b606061130f82611ddf565b600060066000848152602001908152602001600020805461132f90613dc6565b80601f016020809104026020016040519081016040528092919081815260200182805461135b90613dc6565b80156113a85780601f1061137d576101008083540402835291602001916113a8565b820191906000526020600020905b81548152906001019060200180831161138b57829003601f168201915b5050505050905060006113b9612635565b90506000815114156113cf578192505050611412565b6000825111156114045780826040516020016113ec9291906141d8565b60405160208183030381529060405292505050611412565b61140d8461264c565b925050505b919050565b6000600560008473ffffffffffffffffffffffffffffffffffffffff1673ffffffffffffffffffffffffffffffffffffffff16815260200190815260200160002060008373ffffffffffffffffffffffffffffffffffffffff1673ffffffffffffffffffffffffffffffffffffffff16815260200190815260200160002060009054906101000a900460ff16905092915050565b600073ffffffffffffffffffffffffffffffffffffffff16600c83836040516114d5929190613f4c565b908152602001604051809103902060009054906101000a900473ffffffffffffffffffffffffffffffffffffffff1673ffffffffffffffffffffffffffffffffffffffff1614611551576040517f3a81d6fc00000000000000000000000000000000000000000000000000000000815260040160405180910390fd5b61155b82826110b2565b61159e5781816040517f7f19f48d000000000000000000000000000000000000000000000000000000008152600401611595929190614229565b60405180910390fd5b600073ffffffffffffffffffffffffffffffffffffffff16600c83836040516115c8929190613f4c565b908152602001604051809103902060009054906101000a900473ffffffffffffffffffffffffffffffffffffffff1673ffffffffffffffffffffffffffffffffffffffff161461161757600080fd5b60006116238383611bbf565b905080341015611668576040517f08c379a000000000000000000000000000000000000000000000000000000000815260040161165f90614299565b60405180910390fd5b60008383600960405160200161168093929190614399565b60405160208183030381529060405290506000600a82600b6040516020016116aa939291906143ca565b604051602081830303815290604052905060006116c760086126b4565b9050600061171887878080601f016020809104026020016040519081016040528093929190818152602001838380828437600081840152601f19601f820116905080830192505050505050506122b7565b90506000611725826126c2565b9050611819604051806060016040528060318152602001614ddc6031913989898080601f016020809104026020016040519081016040528093929190818152602001838380828437600081840152601f19601f820116905080830192505050505050506009805461179590613dc6565b80601f01602080910402602001604051908101604052809291908181526020018280546117c190613dc6565b801561180e5780601f106117e35761010080835404028352916020019161180e565b820191906000526020600020905b8154815290600101906020018083116117f157829003601f168201915b50505050508661279a565b600061184f866118288761283c565b8460405160200161183b93929190614577565b60405160208183030381529060405261283c565b90506000816040516020016118649190614620565b6040516020818303038152906040529050611896604051806060016040528060398152602001614da3603991396129a0565b6118d56040518060400160405280600e81526020017f46696e616c20746f6b656e55524900000000000000000000000000000000000081525082611cd9565b6118f6604051806060016040528060398152602001614e0d603991396129a0565b6119003386612a39565b61190a8582612a57565b33600c8b8b60405161191d929190613f4c565b908152602001604051809103902060006101000a81548173ffffffffffffffffffffffffffffffffffffffff021916908373ffffffffffffffffffffffffffffffffffffffff1602179055508989600f6000888152602001908152602001600020919061198b929190613329565b506119966008612acb565b6119d56040518060400160405280601b81526020017f2573206861732072656769737465726564206120646f6d61696e21000000000081525033612ae1565b50505050505050505050565b6060611a216040518060400160405280601f81526020017f47657474696e6720616c6c206e616d65732066726f6d20636f6e7472616374008152506129a0565b6000611a2d60086126b4565b67ffffffffffffffff811115611a4657611a45613811565b5b604051908082528060200260200182016040528015611a7957816020015b6060815260200190600190039081611a645790505b50905060005b611a8960086126b4565b811015611bb757600f60008281526020019081526020016000208054611aae90613dc6565b80601f0160208091040260200160405190810160405280929190818152602001828054611ada90613dc6565b8015611b275780601f10611afc57610100808354040283529160200191611b27565b820191906000526020600020905b815481529060010190602001808311611b0a57829003601f168201915b5050505050828281518110611b3f57611b3e614642565b5b6020026020010181905250611ba46040518060400160405280601781526020017f4e616d6520666f7220746f6b656e20256420697320257300000000000000000081525082848481518110611b9757611b96614642565b5b6020026020010151612b7d565b8080611baf906146a0565b915050611a7f565b508091505090565b600080611c0f84848080601f016020809104026020016040519081016040528093929190818152602001838380828437600081840152601f19601f820116905080830192505050505050506122b7565b905060008111611c1e57600080fd5b6002600e8585604051611c32929190613f4c565b9081526020016040518091039020541415611c585767016345785d8a0000915050611cd3565b6001600e8585604051611c6c929190613f4c565b9081526020016040518091039020541415611c9257670de0b6b3a7640000915050611cd3565b6003811415611cac576706f05b59d3b20000915050611cd3565b6004811415611cc657670429d069189e0000915050611cd3565b67016345785d8a00009150505b92915050565b611d718282604051602401611cef9291906146e9565b6040516020818303038152906040527f4b5c4277000000000000000000000000000000000000000000000000000000007bffffffffffffffffffffffffffffffffffffffffffffffffffffffff19166020820180517bffffffffffffffffffffffffffffffffffffffffffffffffffffffff8381831617835250505050612c1c565b5050565b60007f01ffc9a7000000000000000000000000000000000000000000000000000000007bffffffffffffffffffffffffffffffffffffffffffffffffffffffff1916827bffffffffffffffffffffffffffffffffffffffffffffffffffffffff1916149050919050565b611de881612c45565b611e27576040517f08c379a0000000000000000000000000000000000000000000000000000000008152600401611e1e906140f5565b60405180910390fd5b50565b600033905090565b816004600083815260200190815260200160002060006101000a81548173ffffffffffffffffffffffffffffffffffffffff021916908373ffffffffffffffffffffffffffffffffffffffff160217905550808273ffffffffffffffffffffffffffffffffffffffff16611ea583610e63565b73ffffffffffffffffffffffffffffffffffffffff167f8c5be1e5ebec7d5bd14f71427d1e84f3dd0314c0f7b2291e5b200ac8c7c3b92560405160405180910390a45050565b600080611ef783610e63565b90508073ffffffffffffffffffffffffffffffffffffffff168473ffffffffffffffffffffffffffffffffffffffff161480611f395750611f388185611417565b5b80611f7757508373ffffffffffffffffffffffffffffffffffffffff16611f5f846108b1565b73ffffffffffffffffffffffffffffffffffffffff16145b91505092915050565b8273ffffffffffffffffffffffffffffffffffffffff16611fa082610e63565b73ffffffffffffffffffffffffffffffffffffffff1614611ff6576040517f08c379a0000000000000000000000000000000000000000000000000000000008152600401611fed90614792565b60405180910390fd5b600073ffffffffffffffffffffffffffffffffffffffff168273ffffffffffffffffffffffffffffffffffffffff161415612066576040517f08c379a000000000000000000000000000000000000000000000000000000000815260040161205d90614824565b60405180910390fd5b6120738383836001612c86565b8273ffffffffffffffffffffffffffffffffffffffff1661209382610e63565b73ffffffffffffffffffffffffffffffffffffffff16146120e9576040517f08c379a00000000000000000000000000000000000000000000000000000000081526004016120e090614792565b60405180910390fd5b6004600082815260200190815260200160002060006101000a81549073ffffffffffffffffffffffffffffffffffffffff02191690556001600360008573ffffffffffffffffffffffffffffffffffffffff1673ffffffffffffffffffffffffffffffffffffffff168152602001908152602001600020600082825403925050819055506001600360008473ffffffffffffffffffffffffffffffffffffffff1673ffffffffffffffffffffffffffffffffffffffff16815260200190815260200160002060008282540192505081905550816002600083815260200190815260200160002060006101000a81548173ffffffffffffffffffffffffffffffffffffffff021916908373ffffffffffffffffffffffffffffffffffffffff160217905550808273ffffffffffffffffffffffffffffffffffffffff168473ffffffffffffffffffffffffffffffffffffffff167fddf252ad1be2c89b69c2b068fc378daa952ba7f163c4a11628f55a4df523b3ef60405160405180910390a46122758383836001612dac565b505050565b60006002600083815260200190815260200160002060009054906101000a900473ffffffffffffffffffffffffffffffffffffffff169050919050565b60008060008084519050600092505b808210156124615760008583815181106122e3576122e2614642565b5b602001015160f81c60f81b9050608060f81b817effffffffffffffffffffffffffffffffffffffffffffffffffffffffffffff191610156123325760018361232b9190614844565b925061244d565b60e060f81b817effffffffffffffffffffffffffffffffffffffffffffffffffffffffffffff191610156123745760028361236d9190614844565b925061244c565b60f060f81b817effffffffffffffffffffffffffffffffffffffffffffffffffffffffffffff191610156123b6576003836123af9190614844565b925061244b565b60f8801b817effffffffffffffffffffffffffffffffffffffffffffffffffffffffffffff191610156123f7576004836123f09190614844565b925061244a565b60fc60f81b817effffffffffffffffffffffffffffffffffffffffffffffffffffffffffffff19161015612439576005836124329190614844565b9250612449565b6006836124469190614844565b92505b5b5b5b5b508280612459906146a0565b9350506122c6565b829350505050919050565b8173ffffffffffffffffffffffffffffffffffffffff168373ffffffffffffffffffffffffffffffffffffffff1614156124db576040517f08c379a00000000000000000000000000000000000000000000000000000000081526004016124d2906148e6565b60405180910390fd5b80600560008573ffffffffffffffffffffffffffffffffffffffff1673ffffffffffffffffffffffffffffffffffffffff16815260200190815260200160002060008473ffffffffffffffffffffffffffffffffffffffff1673ffffffffffffffffffffffffffffffffffffffff16815260200190815260200160002060006101000a81548160ff0219169083151502179055508173ffffffffffffffffffffffffffffffffffffffff168373ffffffffffffffffffffffffffffffffffffffff167f17307eab39ab6107e8899845ad3d59bd9653f200f220920489ca2b5937696c31836040516125cc9190613506565b60405180910390a3505050565b6125e4848484611f80565b6125f084848484612db2565b61262f576040517f08c379a000000000000000000000000000000000000000000000000000000000815260040161262690614978565b60405180910390fd5b50505050565b606060405180602001604052806000815250905090565b606061265782611ddf565b6000612661612635565b9050600081511161268157604051806020016040528060008152506126ac565b8061268b846126c2565b60405160200161269c9291906141d8565b6040516020818303038152906040525b915050919050565b600081600001549050919050565b6060600060016126d184612f3a565b01905060008167ffffffffffffffff8111156126f0576126ef613811565b5b6040519080825280601f01601f1916602001820160405280156127225781602001600182028036833780820191505090505b509050600082602001820190505b60011561278f578080600190039150507f3031323334353637383961626364656600000000000000000000000000000000600a86061a8153600a858161277957612778614998565b5b049450600085141561278a5761278f565b612730565b819350505050919050565b612836848484846040516024016127b494939291906149c7565b6040516020818303038152906040527f8eafb02b000000000000000000000000000000000000000000000000000000007bffffffffffffffffffffffffffffffffffffffffffffffffffffffff19166020820180517bffffffffffffffffffffffffffffffffffffffffffffffffffffffff8381831617835250505050612c1c565b50505050565b606060008251141561285f5760405180602001604052806000815250905061299b565b6000604051806060016040528060408152602001614e46604091399050600060036002855161288e9190614844565b6128989190614a21565b60046128a49190614a52565b67ffffffffffffffff8111156128bd576128bc613811565b5b6040519080825280601f01601f1916602001820160405280156128ef5781602001600182028036833780820191505090505b509050600182016020820185865187015b8082101561295b576003820191508151603f8160121c168501518453600184019350603f81600c1c168501518453600184019350603f8160061c168501518453600184019350603f8116850151845360018401935050612900565b5050600386510660018114612977576002811461298a57612992565b603d6001830353603d6002830353612992565b603d60018303535b50505080925050505b919050565b612a36816040516024016129b491906135ba565b6040516020818303038152906040527f41304fac000000000000000000000000000000000000000000000000000000007bffffffffffffffffffffffffffffffffffffffffffffffffffffffff19166020820180517bffffffffffffffffffffffffffffffffffffffffffffffffffffffff8381831617835250505050612c1c565b50565b612a5382826040518060200160405280600081525061308d565b5050565b612a6082612c45565b612a9f576040517f08c379a0000000000000000000000000000000000000000000000000000000008152600401612a9690614b1e565b60405180910390fd5b80600660008481526020019081526020016000209080519060200190612ac69291906133af565b505050565b6001816000016000828254019250508190555050565b612b798282604051602401612af7929190614b3e565b6040516020818303038152906040527f319af333000000000000000000000000000000000000000000000000000000007bffffffffffffffffffffffffffffffffffffffffffffffffffffffff19166020820180517bffffffffffffffffffffffffffffffffffffffffffffffffffffffff8381831617835250505050612c1c565b5050565b612c17838383604051602401612b9593929190614b6e565b6040516020818303038152906040527f5970e089000000000000000000000000000000000000000000000000000000007bffffffffffffffffffffffffffffffffffffffffffffffffffffffff19166020820180517bffffffffffffffffffffffffffffffffffffffffffffffffffffffff8381831617835250505050612c1c565b505050565b60008151905060006a636f6e736f6c652e6c6f679050602083016000808483855afa5050505050565b60008073ffffffffffffffffffffffffffffffffffffffff16612c678361227a565b73ffffffffffffffffffffffffffffffffffffffff1614159050919050565b6001811115612da657600073ffffffffffffffffffffffffffffffffffffffff168473ffffffffffffffffffffffffffffffffffffffff1614612d1a5780600360008673ffffffffffffffffffffffffffffffffffffffff1673ffffffffffffffffffffffffffffffffffffffff1681526020019081526020016000206000828254612d129190614bb3565b925050819055505b600073ffffffffffffffffffffffffffffffffffffffff168373ffffffffffffffffffffffffffffffffffffffff1614612da55780600360008573ffffffffffffffffffffffffffffffffffffffff1673ffffffffffffffffffffffffffffffffffffffff1681526020019081526020016000206000828254612d9d9190614844565b925050819055505b5b50505050565b50505050565b6000612dd38473ffffffffffffffffffffffffffffffffffffffff166130e8565b15612f2d578373ffffffffffffffffffffffffffffffffffffffff1663150b7a02612dfc611e2a565b8786866040518563ffffffff1660e01b8152600401612e1e9493929190614c3c565b6020604051808303816000875af1925050508015612e5a57506040513d601f19601f82011682018060405250810190612e579190614c9d565b60015b612edd573d8060008114612e8a576040519150601f19603f3d011682016040523d82523d6000602084013e612e8f565b606091505b50600081511415612ed5576040517f08c379a0000000000000000000000000000000000000000000000000000000008152600401612ecc90614978565b60405180910390fd5b805181602001fd5b63150b7a0260e01b7bffffffffffffffffffffffffffffffffffffffffffffffffffffffff1916817bffffffffffffffffffffffffffffffffffffffffffffffffffffffff191614915050612f32565b600190505b949350505050565b600080600090507a184f03e93ff9f4daa797ed6e38ed64bf6a1f0100000000000000008310612f98577a184f03e93ff9f4daa797ed6e38ed64bf6a1f0100000000000000008381612f8e57612f8d614998565b5b0492506040810190505b6d04ee2d6d415b85acef81000000008310612fd5576d04ee2d6d415b85acef81000000008381612fcb57612fca614998565b5b0492506020810190505b662386f26fc10000831061300457662386f26fc100008381612ffa57612ff9614998565b5b0492506010810190505b6305f5e100831061302d576305f5e100838161302357613022614998565b5b0492506008810190505b612710831061305257612710838161304857613047614998565b5b0492506004810190505b60648310613075576064838161306b5761306a614998565b5b0492506002810190505b600a8310613084576001810190505b80915050919050565b613097838361310b565b6130a46000848484612db2565b6130e3576040517f08c379a00000000000000000000000000000000000000000000000000000000081526004016130da90614978565b60405180910390fd5b505050565b6000808273ffffffffffffffffffffffffffffffffffffffff163b119050919050565b600073ffffffffffffffffffffffffffffffffffffffff168273ffffffffffffffffffffffffffffffffffffffff16141561317b576040517f08c379a000000000000000000000000000000000000000000000000000000000815260040161317290614d16565b60405180910390fd5b61318481612c45565b156131c4576040517f08c379a00000000000000000000000000000000000000000000000000000000081526004016131bb90614d82565b60405180910390fd5b6131d2600083836001612c86565b6131db81612c45565b1561321b576040517f08c379a000000000000000000000000000000000000000000000000000000000815260040161321290614d82565b60405180910390fd5b6001600360008473ffffffffffffffffffffffffffffffffffffffff1673ffffffffffffffffffffffffffffffffffffffff16815260200190815260200160002060008282540192505081905550816002600083815260200190815260200160002060006101000a81548173ffffffffffffffffffffffffffffffffffffffff021916908373ffffffffffffffffffffffffffffffffffffffff160217905550808273ffffffffffffffffffffffffffffffffffffffff16600073ffffffffffffffffffffffffffffffffffffffff167fddf252ad1be2c89b69c2b068fc378daa952ba7f163c4a11628f55a4df523b3ef60405160405180910390a4613325600083836001612dac565b5050565b82805461333590613dc6565b90600052602060002090601f016020900481019282613357576000855561339e565b82601f1061337057803560ff191683800117855561339e565b8280016001018555821561339e579182015b8281111561339d578235825591602001919060010190613382565b5b5090506133ab9190613435565b5090565b8280546133bb90613dc6565b90600052602060002090601f0160209004810192826133dd5760008555613424565b82601f106133f657805160ff1916838001178555613424565b82800160010185558215613424579182015b82811115613423578251825591602001919060010190613408565b5b5090506134319190613435565b5090565b5b8082111561344e576000816000905550600101613436565b5090565b6000604051905090565b600080fd5b600080fd5b60007fffffffff0000000000000000000000000000000000000000000000000000000082169050919050565b61349b81613466565b81146134a657600080fd5b50565b6000813590506134b881613492565b92915050565b6000602082840312156134d4576134d361345c565b5b60006134e2848285016134a9565b91505092915050565b60008115159050919050565b613500816134eb565b82525050565b600060208201905061351b60008301846134f7565b92915050565b600081519050919050565b600082825260208201905092915050565b60005b8381101561355b578082015181840152602081019050613540565b8381111561356a576000848401525b50505050565b6000601f19601f8301169050919050565b600061358c82613521565b613596818561352c565b93506135a681856020860161353d565b6135af81613570565b840191505092915050565b600060208201905081810360008301526135d48184613581565b905092915050565b6000819050919050565b6135ef816135dc565b81146135fa57600080fd5b50565b60008135905061360c816135e6565b92915050565b6000602082840312156136285761362761345c565b5b6000613636848285016135fd565b91505092915050565b600073ffffffffffffffffffffffffffffffffffffffff82169050919050565b600061366a8261363f565b9050919050565b61367a8161365f565b82525050565b60006020820190506136956000830184613671565b92915050565b6136a48161365f565b81146136af57600080fd5b50565b6000813590506136c18161369b565b92915050565b600080604083850312156136de576136dd61345c565b5b60006136ec858286016136b2565b92505060206136fd858286016135fd565b9150509250929050565b600080fd5b600080fd5b600080fd5b60008083601f84011261372c5761372b613707565b5b8235905067ffffffffffffffff8111156137495761374861370c565b5b60208301915083600182028301111561376557613764613711565b5b9250929050565b600080602083850312156137835761378261345c565b5b600083013567ffffffffffffffff8111156137a1576137a0613461565b5b6137ad85828601613716565b92509250509250929050565b6000806000606084860312156137d2576137d161345c565b5b60006137e0868287016136b2565b93505060206137f1868287016136b2565b9250506040613802868287016135fd565b9150509250925092565b600080fd5b7f4e487b7100000000000000000000000000000000000000000000000000000000600052604160045260246000fd5b61384982613570565b810181811067ffffffffffffffff8211171561386857613867613811565b5b80604052505050565b600061387b613452565b90506138878282613840565b919050565b600067ffffffffffffffff8211156138a7576138a6613811565b5b6138b082613570565b9050602081019050919050565b82818337600083830152505050565b60006138df6138da8461388c565b613871565b9050828152602081018484840111156138fb576138fa61380c565b5b6139068482856138bd565b509392505050565b600082601f83011261392357613922613707565b5b81356139338482602086016138cc565b91505092915050565b6000602082840312156139525761395161345c565b5b600082013567ffffffffffffffff8111156139705761396f613461565b5b61397c8482850161390e565b91505092915050565b61398e816135dc565b82525050565b60006020820190506139a96000830184613985565b92915050565b6000602082840312156139c5576139c461345c565b5b60006139d3848285016136b2565b91505092915050565b60006139e78261363f565b9050919050565b6139f7816139dc565b82525050565b6000602082019050613a1260008301846139ee565b92915050565b613a21816134eb565b8114613a2c57600080fd5b50565b600081359050613a3e81613a18565b92915050565b60008060408385031215613a5b57613a5a61345c565b5b6000613a69858286016136b2565b9250506020613a7a85828601613a2f565b9150509250929050565b600067ffffffffffffffff821115613a9f57613a9e613811565b5b613aa882613570565b9050602081019050919050565b6000613ac8613ac384613a84565b613871565b905082815260208101848484011115613ae457613ae361380c565b5b613aef8482856138bd565b509392505050565b600082601f830112613b0c57613b0b613707565b5b8135613b1c848260208601613ab5565b91505092915050565b60008060008060808587031215613b3f57613b3e61345c565b5b6000613b4d878288016136b2565b9450506020613b5e878288016136b2565b9350506040613b6f878288016135fd565b925050606085013567ffffffffffffffff811115613b9057613b8f613461565b5b613b9c87828801613af7565b91505092959194509250565b60008060008060408587031215613bc257613bc161345c565b5b600085013567ffffffffffffffff811115613be057613bdf613461565b5b613bec87828801613716565b9450945050602085013567ffffffffffffffff811115613c0f57613c0e613461565b5b613c1b87828801613716565b925092505092959194509250565b60008060408385031215613c4057613c3f61345c565b5b6000613c4e858286016136b2565b9250506020613c5f858286016136b2565b9150509250929050565b600081519050919050565b600082825260208201905092915050565b6000819050602082019050919050565b600082825260208201905092915050565b6000613cb182613521565b613cbb8185613c95565b9350613ccb81856020860161353d565b613cd481613570565b840191505092915050565b6000613ceb8383613ca6565b905092915050565b6000602082019050919050565b6000613d0b82613c69565b613d158185613c74565b935083602082028501613d2785613c85565b8060005b85811015613d635784840389528151613d448582613cdf565b9450613d4f83613cf3565b925060208a01995050600181019050613d2b565b50829750879550505050505092915050565b60006020820190508181036000830152613d8f8184613d00565b905092915050565b7f4e487b7100000000000000000000000000000000000000000000000000000000600052602260045260246000fd5b60006002820490506001821680613dde57607f821691505b60208210811415613df257613df1613d97565b5b50919050565b7f4552433732313a20617070726f76616c20746f2063757272656e74206f776e6560008201527f7200000000000000000000000000000000000000000000000000000000000000602082015250565b6000613e5460218361352c565b9150613e5f82613df8565b604082019050919050565b60006020820190508181036000830152613e8381613e47565b9050919050565b7f4552433732313a20617070726f76652063616c6c6572206973206e6f7420746f60008201527f6b656e206f776e6572206f7220617070726f76656420666f7220616c6c000000602082015250565b6000613ee6603d8361352c565b9150613ef182613e8a565b604082019050919050565b60006020820190508181036000830152613f1581613ed9565b9050919050565b600081905092915050565b6000613f338385613f1c565b9350613f408385846138bd565b82840190509392505050565b6000613f59828486613f27565b91508190509392505050565b7f4552433732313a2063616c6c6572206973206e6f7420746f6b656e206f776e6560008201527f72206f7220617070726f76656400000000000000000000000000000000000000602082015250565b6000613fc1602d8361352c565b9150613fcc82613f65565b604082019050919050565b60006020820190508181036000830152613ff081613fb4565b9050919050565b600081905092915050565b50565b6000614012600083613ff7565b915061401d82614002565b600082019050919050565b600061403382614005565b9150819050919050565b7f4661696c656420746f207769746864726177204d617469630000000000000000600082015250565b600061407360188361352c565b915061407e8261403d565b602082019050919050565b600060208201905081810360008301526140a281614066565b9050919050565b7f4552433732313a20696e76616c696420746f6b656e2049440000000000000000600082015250565b60006140df60188361352c565b91506140ea826140a9565b602082019050919050565b6000602082019050818103600083015261410e816140d2565b9050919050565b7f4552433732313a2061646472657373207a65726f206973206e6f74206120766160008201527f6c6964206f776e65720000000000000000000000000000000000000000000000602082015250565b600061417160298361352c565b915061417c82614115565b604082019050919050565b600060208201905081810360008301526141a081614164565b9050919050565b60006141b282613521565b6141bc8185613f1c565b93506141cc81856020860161353d565b80840191505092915050565b60006141e482856141a7565b91506141f082846141a7565b91508190509392505050565b6000614208838561352c565b93506142158385846138bd565b61421e83613570565b840190509392505050565b600060208201905081810360008301526142448184866141fc565b90509392505050565b7f4e6f7420656e6f756768204d6174696320706169640000000000000000000000600082015250565b600061428360158361352c565b915061428e8261424d565b602082019050919050565b600060208201905081810360008301526142b281614276565b9050919050565b7f2e00000000000000000000000000000000000000000000000000000000000000600082015250565b60006142ef600183613f1c565b91506142fa826142b9565b600182019050919050565b60008190508160005260206000209050919050565b6000815461432781613dc6565b6143318186613f1c565b9450600182166000811461434c576001811461435d57614390565b60ff19831686528186019350614390565b61436685614305565b60005b8381101561438857815481890152600182019150602081019050614369565b838801955050505b50505092915050565b60006143a6828587613f27565b91506143b1826142e2565b91506143bd828461431a565b9150819050949350505050565b60006143d6828661431a565b91506143e282856141a7565b91506143ee828461431a565b9150819050949350505050565b7f7b226e616d65223a202200000000000000000000000000000000000000000000600082015250565b6000614431600a83613f1c565b915061443c826143fb565b600a82019050919050565b7f222c20226465736372697074696f6e223a20224120646f6d61696e206f6e207460008201527f6865204b696e67206e616d652073657276696365222c2022696d616765223a2060208201527f22646174613a696d6167652f7376672b786d6c3b6261736536342c0000000000604082015250565b60006144c9605b83613f1c565b91506144d482614447565b605b82019050919050565b7f222c226c656e677468223a220000000000000000000000000000000000000000600082015250565b6000614515600c83613f1c565b9150614520826144df565b600c82019050919050565b7f227d000000000000000000000000000000000000000000000000000000000000600082015250565b6000614561600283613f1c565b915061456c8261452b565b600282019050919050565b600061458282614424565b915061458e82866141a7565b9150614599826144bc565b91506145a582856141a7565b91506145b082614508565b91506145bc82846141a7565b91506145c782614554565b9150819050949350505050565b7f646174613a6170706c69636174696f6e2f6a736f6e3b6261736536342c000000600082015250565b600061460a601d83613f1c565b9150614615826145d4565b601d82019050919050565b600061462b826145fd565b915061463782846141a7565b915081905092915050565b7f4e487b7100000000000000000000000000000000000000000000000000000000600052603260045260246000fd5b7f4e487b7100000000000000000000000000000000000000000000000000000000600052601160045260246000fd5b60006146ab826135dc565b91507fffffffffffffffffffffffffffffffffffffffffffffffffffffffffffffffff8214156146de576146dd614671565b5b600182019050919050565b600060408201905081810360008301526147038185613581565b905081810360208301526147178184613581565b90509392505050565b7f4552433732313a207472616e736665722066726f6d20696e636f72726563742060008201527f6f776e6572000000000000000000000000000000000000000000000000000000602082015250565b600061477c60258361352c565b915061478782614720565b604082019050919050565b600060208201905081810360008301526147ab8161476f565b9050919050565b7f4552433732313a207472616e7366657220746f20746865207a65726f2061646460008201527f7265737300000000000000000000000000000000000000000000000000000000602082015250565b600061480e60248361352c565b9150614819826147b2565b604082019050919050565b6000602082019050818103600083015261483d81614801565b9050919050565b600061484f826135dc565b915061485a836135dc565b9250827fffffffffffffffffffffffffffffffffffffffffffffffffffffffffffffffff0382111561488f5761488e614671565b5b828201905092915050565b7f4552433732313a20617070726f766520746f2063616c6c657200000000000000600082015250565b60006148d060198361352c565b91506148db8261489a565b602082019050919050565b600060208201905081810360008301526148ff816148c3565b9050919050565b7f4552433732313a207472616e7366657220746f206e6f6e20455243373231526560008201527f63656976657220696d706c656d656e7465720000000000000000000000000000602082015250565b600061496260328361352c565b915061496d82614906565b604082019050919050565b6000602082019050818103600083015261499181614955565b9050919050565b7f4e487b7100000000000000000000000000000000000000000000000000000000600052601260045260246000fd5b600060808201905081810360008301526149e18187613581565b905081810360208301526149f58186613581565b90508181036040830152614a098185613581565b9050614a186060830184613985565b95945050505050565b6000614a2c826135dc565b9150614a37836135dc565b925082614a4757614a46614998565b5b828204905092915050565b6000614a5d826135dc565b9150614a68836135dc565b9250817fffffffffffffffffffffffffffffffffffffffffffffffffffffffffffffffff0483118215151615614aa157614aa0614671565b5b828202905092915050565b7f45524337323155524953746f726167653a2055524920736574206f66206e6f6e60008201527f6578697374656e7420746f6b656e000000000000000000000000000000000000602082015250565b6000614b08602e8361352c565b9150614b1382614aac565b604082019050919050565b60006020820190508181036000830152614b3781614afb565b9050919050565b60006040820190508181036000830152614b588185613581565b9050614b676020830184613671565b9392505050565b60006060820190508181036000830152614b888186613581565b9050614b976020830185613985565b8181036040830152614ba98184613581565b9050949350505050565b6000614bbe826135dc565b9150614bc9836135dc565b925082821015614bdc57614bdb614671565b5b828203905092915050565b600081519050919050565b600082825260208201905092915050565b6000614c0e82614be7565b614c188185614bf2565b9350614c2881856020860161353d565b614c3181613570565b840191505092915050565b6000608082019050614c516000830187613671565b614c5e6020830186613671565b614c6b6040830185613985565b8181036060830152614c7d8184614c03565b905095945050505050565b600081519050614c9781613492565b92915050565b600060208284031215614cb357614cb261345c565b5b6000614cc184828501614c88565b91505092915050565b7f4552433732313a206d696e7420746f20746865207a65726f2061646472657373600082015250565b6000614d0060208361352c565b9150614d0b82614cca565b602082019050919050565b60006020820190508181036000830152614d2f81614cf3565b9050919050565b7f4552433732313a20746f6b656e20616c7265616479206d696e74656400000000600082015250565b6000614d6c601c8361352c565b9150614d7782614d36565b602082019050919050565b60006020820190508181036000830152614d9b81614d5f565b905091905056fe0a2d2d2d2d2d2d2d2d2d2d2d2d2d2d2d2d2d2d2d2d2d2d2d2d2d2d2d2d2d2d2d2d2d2d2d2d2d2d2d2d2d2d2d2d2d2d2d2d2d2d2d2d2d2d2d2d5265676973746572696e672025732e2573206f6e2074686520636f6e7472616374207769746820746f6b656e49442025642d2d2d2d2d2d2d2d2d2d2d2d2d2d2d2d2d2d2d2d2d2d2d2d2d2d2d2d2d2d2d2d2d2d2d2d2d2d2d2d2d2d2d2d2d2d2d2d2d2d2d2d2d2d2d2d0a4142434445464748494a4b4c4d4e4f505152535455565758595a6162636465666768696a6b6c6d6e6f707172737475767778797a303132333435363738392b2fa26469706673582212200eaf50331c11e94cfacd810f0707da18705215b4e0a64b7bfa6e101231a21e9364736f6c634300080a00333c73766720786d6c6e733d22687474703a2f2f7777772e77332e6f72672f323030302f737667222077696474683d2232373022206865696768743d22323730222066696c6c3d226e6f6e65223e3c706174682066696c6c3d2275726c282361292220643d224d302030683237307632373048307a222f3e3c646566733e3c66696c7465722069643d22622220636f6c6f722d696e746572706f6c6174696f6e2d66696c746572733d2273524742222066696c746572556e6974733d227573657253706163654f6e55736522206865696768743d22323730222077696474683d22323730223e3c666544726f70536861646f772064783d2230222064793d22312220737464446576696174696f6e3d22322220666c6f6f642d6f7061636974793d222e323235222077696474683d223230302522206865696768743d2232303025222f3e3c2f66696c7465723e3c2f646566733e3c70617468207374796c653d227374726f6b653a6e6f6e653b66696c6c2d72756c653a6e6f6e7a65726f3b66696c6c3a233465326434653b66696c6c2d6f7061636974793a312220643d224d32332e38323820332e343537632d312e3137322e34352d322e31323920312e3835362d322e31343820332e3134352030202e3638332e35363620312e39353320312e30353420322e3336332e3137362e3135362e3331332e3333322e3331332e34332030202e3133362d382e3238312031332e3936342d382e3439362031342e3139392d2e30322e3033392d312e3833362d2e3939362d342e3032342d322e3236366c2d332e3936342d322e3332342e3033392d2e3836632e3037382d312e32312d2e3630362d322e34382d312e3632322d332e3034362d322e3639352d312e3532342d352e38393820312e32372d342e37303720342e3130312e3337322e38393920312e35343320312e38373520322e34343220322e3031326c2e3736322e3131372e36383320322e3438632e33373120312e33343820312e33363720342e39343220322e32303720372e3938396c312e35323420352e3530386833342e3231386c312e3532342d352e353038632e38342d332e30343720312e3833362d362e363420322e3230372d372e3938386c2e3638332d322e34382e3736322d2e313138632e3839392d2e31333720322e30372d312e31313320322e3434322d322e3031322e3634342d312e3532332d2e30322d332e33322d312e3438352d342e3130312d312e3035342d2e3534372d312e3937322d2e3536372d332e3034372d2e30342d312e3133332e3534372d312e37313820312e3532342d312e37373720322e39316c2d2e303220312e3035352d332e39343520322e333235632d322e31383720312e32372d332e39383420322e3238352d342e30303420322e3234362d2e3137362d2e3139362d382e3439362d31342e3036332d382e3439362d31342e313620302d2e3035392e3235342d2e3339312e3538362d2e37363220312e3739372d322e30372e3233342d352e33392d322e3533392d352e3333322d2e34383820302d312e3031362e3035382d312e3137322e3131375a4d372e34382034312e363032632d312e36393920312e3031352d312e363220332e3836372e31313820342e3738352e3530372e32353420322e3539372e3239332031372e3430322e3239332031382e35353520302031372e3537382e3035382031382e33362d312e32332e3530372d2e3832312e3530372d322e31383820302d332e3030392d2e3738322d312e3238392e3231342d312e32332d31382e342d312e32332d31362e33363620302d31362e3837342e30322d31372e34382e33395a6d302030222f3e3c646566733e3c6c696e6561724772616469656e742069643d2261222078313d2230222079313d2230222078323d22323730222079323d2232373022206772616469656e74556e6974733d227573657253706163654f6e557365223e3c73746f702073746f702d636f6c6f723d2223663865636365222f3e3c73746f70206f66667365743d2231222073746f702d636f6c6f723d2223666666222073746f702d6f7061636974793d222e3939222f3e3c2f6c696e6561724772616469656e743e3c2f646566733e3c7465787420783d2233322e352220793d223233312220666f6e742d73697a653d223237222066696c6c3d2223346532643465222066696c7465723d2275726c282362292220666f6e742d66616d696c793d22506c7573204a616b617274612053616e732c44656a6156752053616e732c4e6f746f20436f6c6f7220456d6f6a692c4170706c6520436f6c6f7220456d6f6a692c73616e732d73657269662220666f6e742d7765696768743d22626f6c64223e",
    "linkReferences": {},
    "deployedLinkReferences": {}
}